{
  "_format": "hh-sol-artifact-1",
  "contractName": "Groth16Verifier",
  "sourceName": "contracts/Verifier.sol",
  "abi": [
    {
      "inputs": [
        {
          "internalType": "uint256[2]",
          "name": "_pA",
          "type": "uint256[2]"
        },
        {
          "internalType": "uint256[2][2]",
          "name": "_pB",
          "type": "uint256[2][2]"
        },
        {
          "internalType": "uint256[2]",
          "name": "_pC",
          "type": "uint256[2]"
        },
        {
          "internalType": "uint256[1]",
          "name": "_pubSignals",
          "type": "uint256[1]"
        }
      ],
      "name": "verifyProof",
      "outputs": [
        {
          "internalType": "bool",
          "name": "",
          "type": "bool"
        }
      ],
      "stateMutability": "view",
      "type": "function"
    }
  ],
  "bytecode": "0x6080604052348015600f57600080fd5b506106018061001f6000396000f3fe608060405234801561001057600080fd5b506004361061002b5760003560e01c806343753b4d14610030575b600080fd5b61004a6004803603810190610045919061052c565b610060565b60405161005791906105b0565b60405180910390f35b600061048d565b7f30644e72e131a029b85045b68181585d2833e84879b9709143e1f593f00000018110610098576000805260206000f35b50565b600060405183815284602082015285604082015260408160608360076107d05a03fa9150816100ce576000805260206000f35b825160408201526020830151606082015260408360808360066107d05a03fa9150816100fe576000805260206000f35b505050505050565b600060808601600087017f2b35c7c4557420989a2464edc77e1c28a278f01abcd6935bf08b024ea38eb5dd81527f0e94e9dde5d961c37f0ce0d1c877a4a18687e3775701f895616658cd24fe123260208201526101a960008801357f1d59ae4b817f7b80848c6c7b397146d3308c7d826b17b04754d1c17992043e007f111047af4b3dd9ddaf099294b07878cefc2003ad20bd1af27dd7120521b1f3788461009b565b833582527f30644e72e131a029b85045b68181585d97816a916871ca8d3c208c16d87cfd4760208501357f30644e72e131a029b85045b68181585d97816a916871ca8d3c208c16d87cfd4703066020830152843560408301526020850135606083015260408501356080830152606085013560a08301527f0e4c47ff1e1382afd537af83bf0f5b1eb9c23fa2f1749d6c274c6eecaaa6c49360c08301527f2fcd8180ab8aa209103a9335cd8867bc090d3f264ef9c7906ced1ecb47ea287960e08301527f25bfc6d7f96bb5036b947af4495ad0abe8dbf920c2b59485f3b35506bab69d906101008301527f1d62992cabe6a56d47565e0a5ae1470c61fdd47cba9c598a75183f7cd7d37adb6101208301527f0cd894ad7f4feb72d5e37c361e6fb1a1472981103dc5e24422b0d88fd5fb59e26101408301527f1e442c554442eb5c46750c8cdae9ee624eaf37d6d889354e80cf1327f856c3c5610160830152600088015161018083015260206000018801516101a08301527f198e9393920d483a7260bfb731fb5d25f1aa493335a9e71297e485b7aef312c26101c08301527f1800deef121f1e76426a00665e5c4479674322d4f75edadd46debd5cd992f6ed6101e08301527f090689d0585ff075ec9e99ad690c3395bc4b313370b38ef355acdadcd122975b6102008301527f12c85ea5db8c6deb4aab71808dcb408fe3d1e7690c43d37b4ce6cc0166fa7daa610220830152853561024083015260208601356102608301527f157a9240835cc008cb8ffe804a993918d51e757e8dd1bf94bef52f0fa9546e136102808301527f20ddfe0dda8cf404eed6ede830768e0eb997dad378a50fcaac95b968f60c98876102a08301527f095fbc87f28de71688bc7d8cee81875927ba0e078223f7e51f479475c4e5bf956102c08301527f1fefcd6b46a187e9b64c54f8515f661d84969855b473003c7a096f71ac2572306102e08301526020826103008460086107d05a03fa82518116935050505095945050505050565b60405161038081016040526104a56000840135610067565b6104b2818486888a610106565b8060005260206000f35b600080fd5b600080fd5b6000819050826020600202820111156104e2576104e16104c1565b5b92915050565b600081905082604060020282011115610504576105036104c1565b5b92915050565b600081905082602060010282011115610526576105256104c1565b5b92915050565b6000806000806101208587031215610547576105466104bc565b5b6000610555878288016104c6565b9450506040610566878288016104e8565b93505060c0610577878288016104c6565b9250506101006105898782880161050a565b91505092959194509250565b60008115159050919050565b6105aa81610595565b82525050565b60006020820190506105c560008301846105a1565b9291505056fea264697066735822122012b579355348f83f64f334ec23de4d9813d484ecf8cd5152c75abcdf2d2b15d764736f6c634300081c0033",
  "linkReferences": {},
  "deployedLinkReferences": {}
}